:020000040800F2
:1000000000040020A1010008F7010008EF0100082A
:10001000F3010008E9010008FD03000800000000EA
:100020000000000000000000000000001D020008A9
:10003000ED01000800000000F90100080D030008B0
:10004000BB010008BB010008BB010008BB010008A0
:10005000BB010008BB010008BB010008BB01000890
:10006000BB010008BB010008BB010008BB01000880
:10007000BB010008BB010008BB010008BB01000870
:10008000BB010008BB010008BB010008BB01000860
:10009000BB010008BB010008BB010008BB01000850
:1000A000BB010008BB010008BB010008BB01000840
:1000B000BB010008BB010008BB010008BB01000830
:1000C000BB010008BB010008BB010008BB01000820
:1000D000BB010008BB010008BB010008BB01000810
:1000E000BB010008BB010008BB010008BB01000800
:1000F000BB010008BB010008BB010008BB010008F0
:10010000BB010008BB010008BB010008BB010008DF
:10011000BB010008BB010008BB010008BB010008CF
:10012000BB010008BB010008BB010008BB010008BF
:10013000BB010008BB010008BB010008BB010008AF
:10014000BB010008BB010008BB010008BB0100089F
:10015000BB010008BB010008BB010008BB0100088F
:10016000BB010008BB010008BB010008BB0100087F
:10017000BB010008BB010008BB010008BB0100086F
:10018000BB010008BB010008DFF810D000F01AF82E
:10019000004800472D040008AFF300800004002051
:1001A0000648804706480047FEE7FEE7FEE7FEE711
:1001B000FEE7FEE7FEE7FEE7FEE7FEE711030008C5
:1001C00089010008064C074D06E0E06840F0010395
:1001D00094E8070098471034AC42F6D3FFF7D8FFF5
:1001E000740400088404000800BFFEE7704700BFE5
:1001F000FEE700BFFEE770477047000029B1064ADE
:1002000012680243044B1A6004E0034A12688243F6
:10021000014B1A60704700004038024070470000F0
:100220000CB50020019000903448006840F4803004
:100230003249086000BF3148006800F40030009087
:100240000198401C0190009818B90198B0F5A04F92
:10025000F1D12A48006800F4003010B1012000906C
:1002600001E0002000900098012846D1234840304A
:10027000006840F080502149403108602048006803
:1002800040F440401E4908601C48083000681B4983
:10029000083108600846006840F4004008600846DD
:1002A000006840F4A05008601648091F0860081F45
:1002B000006840F08070091F086000BF0F480068A8
:1002C00000F000700028F9D040F205700E49086077
:1002D0000A480830006820F0030008490831086027
:1002E0000846006840F00200086000BF034808307C
:1002F000006800F00C000828F8D10CBD003802405E
:100300000070004019544007003C02407047000054
:1003100010B51548006840F4700013490860134890
:10032000006840F001001149086000200F490831C1
:1003300008600E4800680E4908400C4908600D48E6
:10034000091D0860081F006820F48020091F08604C
:10035000002006490C310860FFF762FF4FF0006093
:1003600001498039086010BD88ED00E00038024086
:10037000FFFFF6FE1030002400220288184B98423E
:100380000ED0184B98420BD0B0F1804F08D0164BCE
:10039000984205D0154B984202D0154B984204D193
:1003A0004FF68F731A404B881A43124B984207D06E
:1003B000114B984204D04FF6FF431A400B891A4361
:1003C00002804B68C3620B880385054B984202D0BC
:1003D000044B984201D18B7A0386012383827047B4
:1003E00000000140000401400004004000080040FB
:1003F000000C0040001000400014004000BFFEE769
:1004000002E008C8121F08C1002AFAD170477047DD
:10041000002001E001C1121F002AFBD1704710B576
:1004200001210846FFF7EAFE10BD000010B5FFF7F6
:10043000F6FF024800F004F8002010BD6404000834
:100440003EB50446A0680190A088ADF80000A089E0
:10045000ADF80800E088ADF8020069462068FFF7B3
:100460008BFF3EBD0000004053000000E803000089
:1004700000000000840400080000002000040000C8
:04048000100400085C
:040000050800018965
:00000001FF
